:020000040800F2
:10000000980C0020810200084D1B0008451B0008C9
:10001000491B00082D040008291E000800000000EC
:10002000000000000000000000000000551B000858
:100030003104000800000000511B0008591B000893
:100040009B0200089B0200089B0200089B0200081C
:100050009B0200089B0200089B0200089B0200080C
:100060009B0200089B0200089B0200089B020008FC
:100070009B0200089B0200089B0200089B020008EC
:100080009B0200089B0200089B0200080000000081
:100090000000000000000000000000009B020008BB
:1000A0009B0200089B0200089B0200089B020008BC
:1000B0009B0200089B0200089B0200089B020008AC
:1000C0009B0200089B0200089B0200089B0200089C
:1000D0009B0200089B020008191E00080000000097
:1000E0009B0200089B0200089B0200080000000021
:1000F0000000000000000000000000009B0200085B
:10010000000000009B0200089B0200089B02000800
:1001100000000000000000000000000000000000DF
:100120009B0200089B0200089B0200089B0200083B
:100130009B0200080000000000000000000000001A
:100140000000000000000000000000009B0200080A
:100150009B0200089B0200089B0200089B0200080B
:100160009B0200089B020008000000000000000045
:10017000000000000000000000000000000000007F
:10018000000000009B0200080000000000000000CA
:100190009B0200089B02000800F002F800F060F8E3
:1001A0000AA090E8000C82448344AAF10107DA45D2
:1001B00001D100F055F8AFF2090EBAE80F0013F0C4
:1001C000010F18BFFB1A43F00103184790220000EB
:1001D000B02200000A4410F8013B13F0030408BFEA
:1001E00010F8014B1D1108BF10F8015B641E05D00B
:1001F00010F8016B641E01F8016BF9D1002D15D0C8
:1002000010F8014B03F00C030C2BA1EB04040ABF04
:1002100010F8013BA4EB8314A4EB032405F10103C4
:1002200014F8016B5B1E01F8016BF9D5914238BFE0
:1002300010F8013BD1D3704700230024002500268D
:10024000103A28BF78C1FBD8520728BF30C148BF39
:100250000B6070471FB502F0E8F81FBD10B510BD68
:1002600000F0A9F81146FFF7F5FF01F0DFFD00F0FF
:10027000C7F803B4FFF7F2FF03BC00F0CFF80000AB
:100280000948804709480047FEE7FEE7FEE7FEE72A
:10029000FEE7FEE7FEE7FEE7FEE7FEE70448054966
:1002A000054A064B70470000091C00089901000828
:1002B00098060020980C002098080020980800203C
:1002C00053EA020C00F069802DE9F04B4FF0000674
:1002D000002B1FBFB3FA83F503FA05F424FA05F6E1
:1002E0005E4012BF1643B2FA82F502FA05F4C5F178
:1002F00020051EBF22FA05FC44EA0C04203556EA0C
:10030000044C4FEA144418BF641C4FF000084FF02F
:100310000009904271EB030C39D3002919BFB1FADF
:1003200081F701FA07F6B0FA80F700FA07F6C7F18D
:1003300020071EBF20FA07FC46EA0C062037B6FB52
:10034000F4FCA7EB0507103F07F01F0BCBF12006CD
:100350002CFA06F60CFA0BFB44BFB3460026202FFE
:10036000A4BF5E464FF0000B5BEA060C08BF4FF0DF
:10037000010B19EB0B0948EB0608ABFB027C06FBF3
:1003800002CC0BFB03CCC01B71EB0C01C1E70B468D
:10039000024641464846BDE8F08B13B5084318BFF6
:1003A0004FF0FF300146AFF30080BDE81C407047BE
:1003B000704770477047754600F02CF8AE46050050
:1003C0006946534620F00700854618B020B5FFF770
:1003D00065FFBDE820404FF000064FF000074FF0EA
:1003E00000084FF0000BAC46ACE8C009ACE8C0090F
:1003F000ACE8C009ACE8C00921F007018D467047A0
:1004000010B50446AFF300802046BDE81040FFF76A
:1004100030BF000000487047100500200149182037
:10042000ABBEFEE72600020070470000FEE70000BA
:100430007047000070B5866D044600F02FF994F8FF
:100440003510022928D105462068216C026822F067
:1004500016020260426922F08002426109B9A16C71
:1004600019B1016821F008010160016821F0010162
:10047000016000BF20680068C00715D000F00EF9C9
:10048000401B0628F6D320206065032084F8350041
:10049000002184F8341070BD8020606501200021A7
:1004A00084F8341070BD00BFE06D3F2101FA00F008
:1004B000B060012084F835000020002184F8341059
:1004C00070BD000090F83510022909D1052180F88F
:1004D00035100068016821F00101016000207047BB
:1004E00080214165012070472DE9F04F82B000F175
:1004F0003E4241F2000502F1FF77C4F202050722F5
:1005000043F6004E4FEAB726A84208BF0422C4F2C1
:10051000010E042E38BF4FEAB7220125002600271E
:100520004FF00008009208E008F101080437B8F124
:10053000100F06F1020600F0A7800C6805FA08F912
:1005400014EA090FF0D0D1F804B003220BF0030C29
:10055000ACF10104B240012C6FEA020A10D88268A3
:10056000CC6802EA0A02B440224382604268CBF3BC
:10057000001422EA090204FA08F42243426005E06A
:10058000BCF1030F02D14FF0030C20E0C2688C686D
:1005900002EA0A02B4402243BCF1020FC26016D143
:1005A0006FF0030202EA58020244D2F820C007F0BA
:1005B0001C050F230C69AB402CEA030304FA05F574
:1005C0002B431362D1F804B001250BF0030C026831
:1005D0000CFA06F302EA0A021A431BF4403F0260D7
:1005E000A2D0002243F644030192C4F202031A6827
:1005F0004FF6084C42F480421A601A68CFF6FF7C2E
:1006000002F480420192019A28F00302724452F8E7
:100610000C3007F00C050F24AC40A343009C04FAF7
:1006200005F52B4342F80C30DEF808204B6842EA0F
:10063000090543F60C4CDC0258BF22EA0905CEF846
:100640000850C4F2010CDCF800209C0242EA0905C3
:1006500058BF22EA0905CCF80050DEF804209C03BC
:1006600042EA090558BF22EA0905CEF80450DEF82F
:100670000020DB0342EA090558BF22EA0905CEF84B
:100680000050012550E700BF02B0BDE8F08F000028
:10069000002A08BF090481617047000040F294609D
:1006A000C2F200000068704770B5B8B3044690F815
:1006B0003D0028B9002084F83C00204600F0ECFA08
:1006C000242084F83D002068016821F001010160C8
:1006D000016841F400410160016821F400410160BA
:1006E00000F07AFC48F28041C0F21E0140F600138F
:1006F000D4F804E088424FF00001C0F23D0348F214
:10070000A16C4FF0000238BF01219842C0F2010CE9
:1007100038BF0122E64538BF0A460AB1012070BD44
:100720004DF68361C4F21B31A0FB01122168950CC8
:100730004B684FF4967623F03F0343EA92437543A8
:1007400044F6D3564B60C1F262060B6AA5FB06560F
:10075000B50923F03F03E64538BF950C6A1C1A43E0
:100760000A62CA6948F2A0664CF6FF73C0F201063D
:10077000B64522EA03020BD801384FEA4E03B0FB1C
:10078000F3F001306FF31F30042898BF04201EE0FF
:10079000A368013863B119230EFB03F3B0FBF3F038
:1007A00001306FF31F3078B100F5804008E000BFE2
:1007B0000EEB4E03B0FBF3F001306FF31F3028B1A6
:1007C00000F5004003E000BF012000E001201043DD
:1007D000C8610868D4E9072320F0C000104318431B
:1007E0000860886848F2FF3204F10C0690434CCE52
:1007F00018431043A5698860C86820F0FF003043A3
:100800002843C860086840F00100086000202021EB
:10081000206484F83D10206384F83E0070BD000021
:100820002DE9F04381B01F46164688460446FFF77F
:1008300035FF94F83D10202920D1054620688169B4
:10084000890717D5FFF72AFF401B1928F6D9002082
:100850002021206384F83D1084F83E00216C02269C
:1008600041F02001216484F83C00304601B0BDE82D
:10087000F08300BF94F83C10012905D102263046D0
:1008800001B0BDE8F08300BF012184F83C1001688D
:10089000C90703D1016841F001010160016821F439
:1008A00000610160212184F83D10102184F83E1080
:1008B0000021216466626785618D21850021CFF664
:1008C000FF71E162E16A11F5803F18BF012919D17A
:1008D000016841F4807101604169DDF82090C90729
:1008E00023D119F1010116D0B9F1000F46D000BF94
:1008F000FFF7D4FE401B484542D820684169C9072C
:10090000F6D012E00829E3D0216B1229E0D0E3E70A
:100910004169C90709D14169C90706D14169C907B8
:1009200004BF41695FEAC171F2D02169B1F5804F1E
:1009300002D1FE2161E000BF062101EAD811F031A9
:1009400001614169090757D4416919F1010201F4B4
:1009500080612FD0002946D1B9F1000F00F042810B
:10096000FFF79CFE401B484500F23E81206841692C
:10097000090741D441694905F2D534E0FFF78EFEFD
:1009800000202021206384F83D1084F83E00216C73
:10099000012641F020012164216884F83C000868A8
:1009A000C00544BF4FF400702064304601B0BDE87C
:1009B000F08300BFB9B9416909071DD441694905F0
:1009C00011D44169090717D4416949050BD441691C
:1009D000090711D44169490505D4416909070BD4B8
:1009E00041694905E7D5016841F4007101606FF480
:1009F000806141610420F8E0FF2101EA0801016102
:100A0000416989073AD4416919F1010201F4806111
:100A100012D051BBB9F1000F00F0E080FFF73EFEAD
:100A2000401B484500F2DC8020684169890725D4D5
:100A300041694905F2D518E0B9B9416989071DD462
:100A40004169490511D44169890717D441694905AC
:100A50000BD44169890711D44169490505D441691D
:100A600089070BD441694905E7D5016841F4007154
:100A700001606FF4806141610420B6E000260096B9
:100A800041690091816900910099218D002900F050
:100A9000958009F10108014651F8142F120635D44A
:100AA000B8F1000F16D0B9F1000F00F0AF8000BF11
:100AB0000868400500F1B280FFF7F0FD401B484593
:100AC00000F2A9802068014651F8142F1206EFD5D4
:100AD0001CE000BF0A68520500F1A0800A681206F7
:100AE00014D40A68520500F199800A6812060DD4E0
:100AF0000A68520500F192800A68120606D40A6854
:100B0000520500F18B800A681206E3D5636A194624
:100B100011F8012B02616162618D01396185278DB8
:100B20000146A7F1010CA4F828C051F8142F520770
:100B30000DD55FEA0C420AD05A78A7F1020C026187
:100B40009A1C6262628D013A6285A4F828C00A6824
:100B500052072FD4B8F1000F14D0B9F1000F7BD099
:100B60000868400500F18080FFF798FD401B48456C
:100B700077D82068014651F8142F5207F0D5B4F801
:100B800028C017E00A6852056ED40A68520711D4CB
:100B90000A68520568D40A6852070BD40A685205DD
:100BA00062D40A68520705D40A6852055CD40A6800
:100BB0005207E7D55FEA0C417FF46DAF016841F45D
:100BC00000710160202084F83D0084F83E6084F8C4
:100BD0003C60304601B0BDE8F08300BFFFF75EFD2A
:100BE000202002E0FFF75AFD20200021202221636F
:100BF00084F83D2084F83E10226C012610432064C6
:100C000084F83C10304601B0BDE8F0830868400528
:100C100004D4FFF743FD202004E000BF6FF48060A0
:100C20000860042000212022216384F83D2084F8FC
:100C30003E10226C1043206484F83C10206C042881
:100C400025D120680126016841F400710160304619
:100C500001B0BDE8F08300BF0868400504D4FFF789
:100C60001DFD202004E000BF6FF4806008600420B8
:100C700000212022216384F83D2084F83E10226C5C
:100C80001043206484F83C10206C0428D9D001263D
:100C9000304601B0BDE8F083B0B586B0016845F2DA
:100CA0000040C4F20000814202D006B0B0BD00BFD7
:100CB000002443F630050194C4F20205296800F5CA
:100CC000D83041F002012960296801F00201019148
:100CD0000199C02101911221CDE90214032104914F
:100CE0000421059101A9FFF7FFFB0094286940F456
:100CF00000102861286900F400100090009806B0E8
:100D0000B0BD000040F2000040F29461C2F2000069
:100D1000C2F2000100780A681044086070470000C1
:100D200080B543F60040C4F20200016841F400714E
:100D30000160016841F480610160016841F48071E3
:100D40000160032000F088F80F2000F005F800F0A3
:100D500027F8002080BD000070B540F20006C2F206
:100D6000000640F208513278C2F200014FF47A7363
:100D70000968B3FBF2F20446B1FBF2F1084600F059
:100D800043FB0F2C4FF0010508D838B94FF0FF3066
:100D900021460022002500F033F87460284670BD1B
:100DA00082B0002043F640010190C4F202014A687B
:100DB00042F480424A604A6802F480420192019AF9
:100DC0000090086840F080500860086800F080508B
:100DD0000090009802B07047002848BF7047C1B229
:100DE00000F01F00012202FA00F04EF20012CEF2D3
:100DF000000242EAD10121F00301086070470000BF
:100E000010B54EF60C5CCEF2000CDCF80030C3F3EB
:100E1000022E8EF00704042C28BF0424BEF1030325
:100E20004FF0FF3E0EFA04F438BF0023A14399406F
:100E30000EFA03F39A43114300F00F0200F16043EE
:100E40000901043A03F564436244002848BF02F1F3
:100E50000C03197010BD00004EF60C51CEF20001CB
:100E60000A684FF6FF031A4060F30A2242F08060DE
:100E700040F0FD70086070472DE9F041002800F057
:100E80008B8043F60808C4F202080446D8F8F80339
:100E90000D4600F00700884207D288F8F853D8F8CA
:100EA000F80300F00700A84276D12068810717D523
:100EB000410705D5D8F8001041F4E051C8F80010FA
:100EC000010705D5D8F8001041F46041C8F80010BA
:100ED000D8F80010A26821F0F0011143C8F8001002
:100EE000C0073FD1D8F8F80300F00700A84207D99F
:100EF00088F8F853D8F8F80300F00700A8424BD15F
:100F00002068410707D5D8F80010E26821F4E051C5
:100F10001143C8F80010000708D5D8F8000021696F
:100F200020F4604040EAC100C8F8000000F07CF8FE
:100F3000D8F8001042F24442C1F30311C0F6000297
:100F4000515C40F2085220FA01F140F20400C2F272
:100F500000000068C2F200021160FFF7FDFE0020F1
:100F6000BDE8F0816068811E022907D258F8081C8C
:100F700089015CBF0120BDE8F08111E0012807D1A3
:100F800058F8081C89035CBF0120BDE8F08107E028
:100F900058F8081C890703D40120BDE8F08100BF80
:100FA000D8F8001021F003010843C8F80000FFF74B
:100FB00075FB064641F28837D8F80000616800F0FA
:100FC0000C00B0EB810F8DD0FFF768FB801BB8429F
:100FD000F2D90320BDE8F08140F2085043F6080141
:100FE000C2F20000C4F202010068096842F25442F1
:100FF000C1F38221C0F60002515CC8407047000076
:1010000040F2085043F60801C2F20000C4F20201A7
:101010000068096842F25442C1F34231C0F600024E
:10102000515CC8407047000010B543F60404C4F298
:101030000204606800F00C0008280BD0042819BFD7
:1010400042F20040C0F2F40047F64000C0F27D10CA
:1010500010BD00BF206821682368490247F640019F
:10106000C0F27D1100F03F02C3F388105CBF42F272
:101070000041C0F2F401A1FB00010023FFF720F9B9
:1010800021680222C1F3014102EB4101B0FBF1F002
:1010900010BD00002DE9F04182B0002868D0044660
:1010A000007843F60006C007C4F202060BD0B06811
:1010B00000F00C00042840F09F803068800302D5C7
:1010C0006068002854D0207880071AD5B06810F0E6
:1010D0000C0F09D0B06800F00C00082840F0A68082
:1010E0007068400200F1A2803068800702D5E06895
:1010F00001283DD13068216920F0F80040EAC100A4
:1011000030602078000737D4207840074CD4A56998
:1011100055B3B06800F00C00082840F0BB80012DEA
:1011200026D07068E16900F480028A4220D1216AE9
:1011300000F03F028A421BD147F6C071626A01404B
:10114000B1EB821F14D1A16A4FF6FF73C903994313
:1011500000F44032A1F580318A4209D1E16A00F001
:101160007060B0EB016F03D1002002B0BDE8F081E8
:10117000012002B0BDE8F0816069002840F2000063
:10118000C4F2472076D00121C0F8801EFFF786FA0E
:10119000054600BF706F8007B6D4FFF77FFA401B8B
:1011A0000228F7D9DDE000BF306C10F080580AD17A
:1011B00000200190306C40F080503064306C00F0C2
:1011C00080500190019847F20007C4F20007386888
:1011D000C00541D4386840F480703860FFF75EFA8B
:1011E000054600BF3868C00536D4FFF757FA401BE4
:1011F0000228F7D9B5E000BFB06800F00C0008285D
:1012000003D1706840023FF558AF6068B0F5803F89
:1012100007D0B0F5A02F40F08D80306840F48020DA
:101220003060306840F4803030608DE0E068002845
:1012300052D00020C4F2472001210160FFF72EFAAE
:10124000054600BF306880073FF554AFFFF726FA28
:10125000401B0228F6D984E0A068012805D00528A3
:101260004ED1306F40F004003067306F40F0010025
:1012700030674FE00021C0F8801EFFF70FFA0546E7
:10128000706F80077FF540AFFFF708FA401B022818
:10129000F6D966E00027C4F2472700203866FFF73A
:1012A000FDF9022D05460BD1306880015ED5FFF7B0
:1012B000F5F9401B02284FF00300F5D955E700BFB0
:1012C000306880017FF550AFFFF7E8F9401B022836
:1012D0004FF00300F4D948E70020C4F24720002172
:1012E0000160FFF7DBF90546306880077FF509AF3D
:1012F000FFF7D4F9401B02284FF00300F4D934E77C
:10130000316F002821F001013167316F21F00401B4
:1013100031674DD0FFF7C2F9054641F2883700BF6B
:10132000306F800756D4FFF7B9F9401BB842F7D9A0
:1013300017E000BF3168002821F480313160316846
:1013400021F4802131604FD0FFF7A8F9054600BF96
:10135000306880033FF5B7AEFFF7A0F9401B642863
:10136000F6D9032002B0BDE8F08100BF04F11C05EE
:101370002FCD084340EA8210D9034FF6FF72914304
:10138000A1F5803140EA05600843706001203866AD
:10139000FFF784F9044600BF306880013FF5E4AEF2
:1013A000FFF77CF9001B02284FF00300F4D9DCE6BC
:1013B000FFF774F9054641F2883700BF306F8007A8
:1013C00008D5FFF76BF9401BB8424FF00300F5D981
:1013D000CBE600BFB8F1000F7FF499AE306C20F07F
:1013E0008050306493E600BFFFF758F9054600BF10
:1013F000306880037FF567AEFFF750F9401B642823
:101400004FF00300F4D9B0E6411E0020B0EB116F9D
:101410001CBF012070474EF21002CEF20002516054
:101420004EF62351CEF20001F0230B70072190609D
:10143000116070477047000070470000B0B582B07F
:10144000044600680168C368426901F02F05202D39
:1014500003F0200506D12DB1204602B0BDE8B04012
:1014600000F0E2BB5FEA017C1EBF02F0010E03F454
:10147000907212EB0E0253D1226B012A05D111F0AA
:10148000100218BF13F0100236D10A0622D513F04D
:1014900080021FD094F83D1021293FD1A168B1F5F9
:1014A000805F03D12169002900F07282216A4A1C01
:1014B000226209784160E18C01390A04E1842DD16E
:1014C000C16821F08001C160C16841F04001C16084
:1014D00002B0B0BD490621D513F040011ED0C1684D
:1014E00021F04001C1602021204684F83D1002B067
:1014F000BDE8B04000F024BB0021019101680191DA
:101500004168019101994069400613D4A08DE18D95
:10151000E28D002A18BF884240F0BE8102B0B0BD03
:10152000CA0718BF13F4807240F0BA804A0700F16E
:10153000BD80C2E0A16B0868426893B2002BEDD079
:10154000A08D8342EAD2E285C969B1F5807F00F0BF
:101550009D80206850E8030F216820F4807041E8E6
:101560000302DAB1206850E8030F216820F480708C
:1015700041E8030292B1206850E8030F216820F48B
:10158000807041E803024AB1206850E8030F2168E7
:1015900020F4807041E80302002ADAD1206850E884
:1015A000050F216820F0010041E80502DAB120684A
:1015B00050E8050F216820F0010041E8050292B1D2
:1015C000206850E8050F216820F0010041E805027D
:1015D0004AB1206850E8050F216820F0010041E879
:1015E0000502002ADAD1206850E8050F216820F0B2
:1015F000400041E80502DAB1206850E8050F216893
:1016000020F0400041E8050292B1206850E8050F43
:10161000216820F0400041E805024AB1206850E806
:10162000050F216820F0400041E80502002ADAD1C8
:10163000202084F83E0000202063206850E8030F3B
:10164000216820F0100041E80302DAB1206850E878
:10165000030F216820F0100041E8030292B12068D6
:1016600050E8030F216820F0100041E803024AB15E
:10167000206850E8030F216820F0100041E80302C1
:10168000002ADAD1A06BFEF7D5FEA08DE18D401ABD
:1016900081B2204602B0BDE8B040FFF7CBBE00BF2C
:1016A000226C42F0010222644A0706D5BEF1000F07
:1016B00003D0226C42F0020222648A0706D5BEF1F2
:1016C000000F03D0226C42F004022264BCF1000F30
:1016D00009D545EA0E02B2FA82F2520903D1226C10
:1016E00042F008022264226C002A3FF417AF11F086
:1016F000200118BF002D03D0204600F095FA206885
:101700004069216C00F0400001F00801401800F031
:10171000B58000BF206850E8030F216820F4907066
:1017200041E80302BAB3206850E8030F216820F4AF
:10173000907041E8030272B3206850E8030F2168FB
:1017400020F4907041E803022AB3206850E8030FA8
:10175000216820F4907041E80302002ADAD11AE0EF
:10176000206850E8050F216820F0010041E80502DB
:10177000DAB1206850E8050F216820F0010041E847
:10178000050292B1206850E8050F216820F00100A1
:1017900041E805024AB1206850E8050F216820F0B1
:1017A000010041E80502002ADAD1206B012824D18A
:1017B000206850E8030F216820F0100041E8030280
:1017C000DAB1206850E8030F216820F0100041E8EA
:1017D000030292B1206850E8030F216820F0100046
:1017E00041E803024AB1206850E8030F216820F065
:1017F000100041E80302002ADAD1202084F83E00DC
:10180000002020632068406940063FD5206850E8EA
:10181000050F216820F0400041E80502DAB1206898
:1018200050E8050F216820F0400041E8050292B120
:10183000206850E8050F216820F0400041E80502CB
:101840004AB1206850E8050F216820F0400041E8C7
:101850000502002ADAD1A06BC0B141F61D41C0F6E5
:1018600000010165FEF72EFE00283FF457AEA06B85
:10187000016D02B0BDE8B040084700BF2046FFF749
:10188000DBFD0020206402B0B0BD00BF204602B0E6
:10189000BDE8B040FFF7D0BD401A216851E8031FF2
:1018A000226821F4907142E80313DBB1216851E80A
:1018B000031F226821F4907142E8031393B1216859
:1018C00051E8031F226821F4907142E803134BB1E1
:1018D000216851E8031F226821F4907142E8031344
:1018E000002BDAD1216851E8051F226821F001019F
:1018F00042E80513DBB1216851E8051F226821F099
:10190000010142E8051393B1216851E8051F2268DF
:1019100021F0010142E805134BB1216851E8051F90
:10192000226821F0010142E80513002BDAD12021C1
:1019300084F83E1000212163216851E8031F2268CA
:1019400021F0100142E80313002B3FF4A1AE2168FF
:1019500051E8031F226821F0100142E80313002B15
:101960003FF496AE216851E8031F226821F0100170
:1019700042E80313002B3FF48BAE216851E8031FAC
:10198000226821F0100142E80313002BD4D17FE636
:10199000216A31F8022B6FF35F22426021628AE5EF
:1019A000002804BF0120704710B5044690F83D00A0
:1019B00028B9002084F83C00204600F021F82420BB
:1019C00084F83D002068C16821F40051C1602046C0
:1019D00000F0AAF92068016921F490410161416990
:1019E00021F02A014161C16841F40051C160002029
:1019F0002021206484F83D1084F83E1010BD0000C2
:101A000080B586B0016844F20040C4F20000814213
:101A100002D006B080BD00BF002143F63002019124
:101A2000C4F20202136900F5DE3043F4003313619F
:101A3000136903F400330193019B0191136843F090
:101A400001031360126802F001020192019A0C2254
:101A500001920222CDE9022103210491072105917F
:101A600001A9FEF741FD262000210022FFF7C8F959
:101A70002620FFF7B1F906B080BD000090F83E3097
:101A8000202B0BD100294FF0010318BF002A01D1F0
:101A90001846704790F83C30012B01D10220704766
:101AA00000230363816222218285C285036480F85A
:101AB0003E100269016880F83C301AB1C86840F4F1
:101AC0008070C8604869002340F001004861C86820
:101AD00040F02000C86018467047000010B501466D
:101AE00040F27050C2F2000000F10C02914218BFA7
:101AF00010BD40F20C54C2F20004217800237E296C
:101B000003700FD840F21463C2F20003194411F8B5
:101B1000013C3BB110460122FFF7B0FF20780130B5
:101B2000207010BD012340F2146100F80C3BC2F29A
:101B3000000101222370BDE81040FFF79FBF0000A5
:101B400070470000FEE70000FEE70000FEE700002F
:101B50007047000070470000FFF7D4B8B0B592B0EE
:101B6000002443F64000CDE90A44CDE90844059439
:101B7000CDE90344CDE901440094C4F202000168B8
:101B8000022541F080510160006800F08050009013
:101B9000009847F200000094C4F20000016841F48C
:101BA00040410160006800F440400090009801202E
:101BB00006904FF4803007904FF480000D9019206C
:101BC0000E90C020CDE90F050420119006A80C95B9
:101BD000FFF760FA20B1EFF3108072B6FEE700BFA6
:101BE0000F20CDE901054FF48050CDE9040401A890
:101BF00003210394FFF740F920B1EFF3108072B690
:101C0000FEE700BF12B0B0BD4EF68850CEF2000025
:101C1000016841F47001016070470000806B002191
:101C2000C185C184FFF708BC81B090F83E1022291D
:101C300021D183680246B3F5805F09D152F8281F8D
:101C400052F8183C002B63D003685B680AE000BFC1
:101C500052F8281F13B90369002BF5D003685B689D
:101C600003F07F030B70116801311160C18D0139E0
:101C70000A04C18502D001B0704700BF0168CA687C
:101C800022F02002CA60CA6822F48072CA604A69DF
:101C900022F001024A61202180F83E10016B0129E7
:101CA0003ED10021016300BF016851E8031F0268B3
:101CB00021F0100142E80313DBB1016851E8031F72
:101CC000026821F0100142E8031393B1016851E862
:101CD000031F026821F0100142E803134BB10168B1
:101CE00051E8031F026821F0100142E80313002BA2
:101CF000DAD101680A68D20606D5002200920A6885
:101D00000092496800910099818D01B0FFF792BB64
:101D1000026852686FF35F2221F8022B8162A5E707
:101D200001B0FFF7DBBE000010B504460068D4E93F
:101D300002C22369016921F44051114301616269C2
:101D400043EA0C01E3691143C268194349F20C6389
:101D50009A431143C1604169A26921F4407141F283
:101D60000043114340F48062C4F201039A4241618E
:101D700002D1FFF745F901E0FFF72EF9E169636849
:101D80001922B1F5004FA0FB020123D15A00DB0F4D
:101D9000FEF796FA48F21F51C5F2EB11A0FB0123A2
:101DA0005A094FF69C73C0F6FF7303F1805302FB90
:101DB0000300322303EBC000A0FB01014FF4F870D5
:101DC00000EA111000EB0210C1F34211084421682F
:101DD000886010BD9A009B0FFEF772FA48F21F51FF
:101DE000C5F2EB11A0FB01235A094FF69C73C0F614
:101DF000FF7302FB0300322303EB0010A0FB010181
:101E0000F02000EA511000EB0210C1F34311084426
:101E10002168886010BD000040F27050C2F20000DE
:101E20000C30FFF70BBB0000FEE700008AB040F665
:101E30000004C4F20204FEF773FFFFF78FFE0027D1
:101E400043F6300009970497C4F2020001680022AB
:101E500041F00401016001684FF4005501F00401F4
:101E6000049104990497016841F0800101600168C0
:101E700001F08001049104990497016841F0010187
:101E80000160016801F0010104910499049701685F
:101E900041F00201016000684FF4005100F00200BF
:101EA000049004982046FEF7F3FB0120CDE90607D5
:101EB00005A9204605950897FEF716FB40F2C0508D
:101EC000A4F5DA31C2F2000048F2A0624FF4804378
:101ED000C0F2010280E88600C0E90373C0E905771B
:101EE000C0E90777FEF7E0FB20B1EFF3108072B690
:101EF000FEE700BF40F27056C2F20006A4F5E231E0
:101F0000304640F80C1F4FF4E1310C22C0E90117B4
:101F1000C0E90377C0E90527C761FFF741FD28B194
:101F2000EFF3108072B600BFFEE700BF4FF42E4003
:101F3000B04640F2C05528F8030FC2F200054FF03A
:101F4000640A2846782142460223CDF800A0FEF715
:101F500067FC4FF45540A8F8000028467821424617
:101F60000223CDF800A0FEF75BFC4FF40040A8F878
:101F700000002846782142460223CDF800A0FEF753
:101F80004FFC4FF42840A8F800002846782142462C
:101F90000223CDF800A0FEF743FC4FF4F850A8F858
:101FA00000002846782142460223CDF800A0FEF723
:101FB00037FC4FF45340A8F80000284678214246E9
:101FC0000223CDF800A0FEF72BFC0027284678213D
:101FD00042460223A8F80070CDF800A0FEF720FCCE
:101FE0004FF480492846782142460223A8F8009001
:101FF000CDF800A0FEF714FC4FF40D40A8F8000047
:102000002846782142460223CDF800A0FEF708FCBE
:102010004FF4A050A8F80000284678214246022339
:10202000CDF800A0FEF7FCFB4FF40050A8F800002C
:102030002846782142460223CDF800A0FEF7F0FBA7
:102040002846782142460223A8F80070CDF800A067
:10205000FEF7E6FB4FF42140A8F80000284678215F
:1020600042460223CDF800A0FEF7DAFB4FF44840C9
:10207000A8F800002846782142460223CDF800A0A7
:10208000FEF7CEFB4FF45A40A8F80000284678210E
:1020900042460223CDF800A0FEF7C2FB4FF40070C9
:1020A000A8F800002846782142460223CDF800A077
:1020B000FEF7B6FB4FF40140A8F80000284678214F
:1020C00042460223CDF800A0FEF7AAFB4FF44F4092
:1020D000A8F800002846782142460223CDF800A047
:1020E000FEF79EFB4FF45940A8F8000028467821DF
:1020F00042460223CDF800A0FEF792FB4FF4714058
:10210000A8F800002846782142460223CDF800A016
:10211000FEF786FB4FF45B40A8F8000028467821C4
:1021200042460223CDF800A0FEF77AFB284678212C
:1021300042460223A8F80090CDF800A0FEF770FBFD
:102140004FF42440A8F80000284678214246022394
:10215000CDF800A0FEF764FB4FF42640A8F800007D
:102160002846782142460223CDF800A0FEF758FB0E
:102170004FF42F40A8F80000284678214246022359
:10218000CDF800A0FEF74CFB00F0AEF840F20010D6
:10219000CBF2001048F8020C284678214246022370
:1021A000CDF800A0FEF73CFB2846782142460223EA
:1021B000A8F80070CDF800A0FEF732FB4FF4805075
:1021C000A8F800002846782142460223CDF800A056
:1021D000FEF726FB08F1090040F21468C2F200087D
:1021E00041460122FFF74AFCF01C40F20809039027
:1021F000A8F101004FF0400AC2F200094FF47A78CA
:10220000029004E040F600043770C4F20204204655
:102210004FF400510122FEF73BFA30780128F6D145
:1022200020464FF400510022FEF732FA00F05CF82D
:1022300040F20010CBF20010C6F8010028463746E5
:102240002E46039D78212A46022364244FF0000B7A
:102250000094FEF7E5FA304678212A460223A7F8D3
:1022600003B00094FEF7DCFA4FF48050A7F80300A7
:10227000304678212A46022335463E460027009400
:10228000FEF7CEFA40F21460C2F200000078002897
:10229000B8D0DDF808B000BF00EB800009EB00010A
:1022A000344659F80000097904F805AFC4F8010074
:1022B00061712846782122460723A771CDF8008056
:1022C000FEF7AEFA14F8040C00F10801C8B2802839
:1022D00088BF05219BF802000BF1010B002804F8D0
:1022E000041CD9D18EE700002DE9F04F83B040F2F5
:1022F0007059C2F2000940F2C0544FF0304009F169
:102300000305C2F20004C9F801004FF0640820463A
:1023100078212A460223CDF80080FEF781FA4FF09B
:10232000000B204678212A460223A9F803B0CDF8F5
:102330000080FEF775FA4FF48050A9F8030020469C
:1023400078212A460223CDF80080FEF769FA40275B
:1023500000204FF000084FF0000A4FF47A76029008
:1023600033E000BF02984FF000084D4600F1010B2A
:1023700005F8038F4F386870204678212A460223DB
:10238000642705F8028C05F801BC0097FEF748FAAF
:10239000204678212A460223A5F800800097FEF700
:1023A0003FFA4FF480502880204678212A460223A5
:1023B0000097FEF735FACDF808B040274FF0000B34
:1023C000BAF5FF7F0AF1010A29D840F20801C2F2EA
:1023D00000014D46D1F8A00091F8A41005F8057F42
:1023E000C5F801006971204678212A46072385F83F
:1023F00006B00096FEF714FA15F8040C0830C1B2C6
:10240000802988BF0520B8F1800F05F8040CA9D2F7
:1024100008F10108BAF5FF7F0AF1010AD5D90520B4
:10242000A9F8010003B0BDE8F08FF1EE100A4FF6F5
:10243000FF71C0F2C03120EA010040F04070E1EECF
:10244000100A7047000000000000000001020304B1
:1024500006070809000000000102030480240008A8
:102460000000002010050000D401000858270008D3
:102470001005002088070000380200080000000056
:10248000700701000000100001125F0F1207021315
:10249000147F021013242A7F2A1223130864623641
:1024A000495522500005032210101C224100004112
:1024B000221C0014083E08140805200808005030AB
:1024C00000000801000B9E0060600000201008045E
:1024D000025010363E5149453E00427F4000426165
:1024E0005149462141454B311814127F102745456B
:1024F00045393C4A49493001710905033649494982
:1025000036064949291E003636D1125605130814DD
:10251000642214011509201314080201510906321E
:102520004979413E7E1111117E7F3210073E4141B3
:1025300041227F04221C0F100D417F090909013E31
:102540004149497A7F88200D7F00417F410020402A
:10255000413F017F4C137F4001200B7F020C027F23
:102560007F0408107F3C223E32100D063E4151216F
:102570005E7F09192946468710083101017F010154
:102580003F2D10163F1F2040201F3F4038403F6323
:10259000140814630708700807C710044543007443
:1025A00013000246200C200041417F00040201027A
:1025B000045E1340000910110020545454787F48E1
:1025C0004444383844444420051004487F381410EB
:1025D0001518087E0901020C5252523E7F0804046D
:1025E0007800447D40A01408443D007F1028444FEB
:1025F000152720077C041804787C1E213C13387CA6
:10260000FF200708081414187C141308085A100D2A
:1026100020043F4440203C4040207C1CA010091C6A
:102620003C4030403C442842180E0C5050503C4432
:1026300064544C440008363F17007F4A080FEE41AF
:1026400036080010080810087846414678801700C0
:1026500006E0094980797B3A31801929380801035D
:10266000603E21217F80180777087F087722801B32
:10267000367FFD10057F7F100905297B1B403E55E5
:10268000497B2999497B113C5A7F8019C239763898
:102690000B274848483F1E217F211E7120073F20FD
:1026A000203F600732137F4002140E3F203F207FFF
:1026B000017F4848307F4830DD210A216E194E38AD
:1026C000093E413E462919097F7B180A3C4A4A4A7D
:1026D000307C5454284E11013806603824247C8004
:1026E00010086C107C106C00441A1E7C9E03280895
:1026F0007C7C2112097C7C7B180540380404622113
:102700001448051010107C7B113B3A7C8029C612BE
:1027100000213B040462380608147C140871200769
:102720003C20203C600C32137C400220113C203CB9
:10273000207C047C5050207C5020007C000A122811
:102740006E2C10387C10384438485434147C0024E3
:08275000F4000C05000000007C
:040000050800019955
:00000001FF
